:020000040800F2
:100000006804002065010008971700085F110008C8
:1000100095170008D50B0008511F000800000000CC
:100020000000000000000000000000001D1E00088D
:10003000D70B00080000000011180008F11E00088E
:100040007F0100087F0100087F0100087F01000890
:100050007F0100087F010008450C00087F010008AF
:100060007F0100087F0100087F0100087F01000870
:100070007F0100087F0100087F0100087F01000860
:100080007F0100087F0100087F0100087F01000850
:100090007F0100087F0100087F010008BD0E0008F5
:1000A0007F0100087F0100087F0100087F01000830
:1000B0007F0100087F0100087F0100087F01000820
:1000C0007F0100087F0100087F0100087F01000810
:1000D0007F0100087F0100087F0100087F01000800
:1000E000810D00087F0100087F010008000000006A
:1000F0000000000000000000000000000000000000
:1001000000000000000000007F0100087F010008DF
:100110007F0100087F0100087F0100087F010008BF
:100120007F0100087F0100087F0100087F010008AF
:100130007F0100087F0100087F0100087F0100089F
:100140007F0100087F0100087F0100087F0100088F
:10015000DFF80CD000F03CFC00480047613000089C
:10016000680400200648804706480047FEE7FEE78F
:10017000FEE7FEE7FEE7FEE7FEE7FEE7FEE7FEE757
:10018000F51E000851010008F0B480EA0102D40F06
:100190004200B2EB410F02D20246084611464A0025
:1001A00042D0C30DDDB2C1F3C752AD1A202D35DAEE
:1001B000C1F3160141F4000204B15242C5F1200618
:1001C00002FA06F12A411044B3EBD05F23D0C4B148
:1001D000012DA0EBC35009DCF0BC4FF0004202EA55
:1001E000C352DBB200F5000000F04FBB400000F14D
:1001F000807000EBC350A0F1807040EAD1704900DC
:1002000009E0490841EAC071A0EBC35000F50000C5
:10021000400800EBC350F0BC00F02EBB614201224D
:1002200002EB4101001BF6E7F0BC704781F0004192
:10023000AAE780F00040A7E780EA010210B502F0CB
:100240000043400022D04A001FD0010E01EB126192
:10025000C0F35600C2F3560240F4000042F400021C
:10026000A0FB022000047F39140400D0401C50EA97
:10027000124001D44000491EC2B20C0604EBD0105B
:10028000401C4008802A02D003E0002010BD20F06E
:100290000100002900DA0020184310BD30B480EAC4
:1002A000010202F0004530F0004221F0004013D07E
:1002B00090B1C30DD40DC2F31601C0F31600E41AB9
:1002C00041F4000140F400027D34914201D3641CEA
:1002D00000E04900002C02DA30BC002070474FF4E7
:1002E00000000023914201D3891A034340084FEADA
:1002F0004101F7D151B1914202D14FF0004105E0E7
:1003000002D24FF0010101E06FF0010103EBC45094
:10031000284430BC00F0B0BA2DE9FE4F804681EA97
:100320000300C00F0C46009021F0004123F000456F
:10033000B8EB0200A94105D24046214690461C4632
:100340000B46024623F00040104347D0270DC7F369
:100350000A00C3F30A510290401A019040286BDA58
:10036000C3F3130040F4801B0098924620B1002391
:10037000D2EB030A63EB0B0B01985946C0F1400224
:10038000504600F048FA06460D4650465946019A36
:1003900000F060FA10EB08006141002487EA115276
:1003A00084EAE7731A4340D0009A62B3019A012AA3
:1003B0004FEA075215DC001B61EB02014FF00042CF
:1003C00002EA0752CDE90042001C41F58011324695
:1003D0002B4600F097FA03B0BDE8F08F4046214667
:1003E000F9E7001B61EB0201001C41F580130018C6
:1003F0005B412018A2F5001747EB030140EAD570D6
:10040000B6196D4111E06D084FEA360645EAC07530
:100410004FEA0752001B61EB0201001C41F58011FD
:1004200049084FEA30000019514132462B4603B0CB
:10043000BDE8F04F00F057BA0098012240000023B9
:10044000D0EB020263EBE073009821464FEAE074C0
:10045000B8EB000061EB0401E9E783F000435BE7E0
:1004600081F0004158E72DE9FE4F81EA030404F0D2
:10047000004421F0004100944FF0000B23F00043B2
:1004800050EA01045ED052EA03045BD0C3F30A547D
:10049000C1F30A552C44A4F2F3340194A0FB025496
:1004A000C1F3130141F48011C3F3130343F4801328
:1004B00001FB024400FB034E840A970A44EA81547C
:1004C00047EA8357A4FB076802958D0A05FB078559
:1004D0004FEA932C04FB0C542705029D4FEA065863
:1004E00047EA1637B5EB08056EEB070C870E920E40
:1004F00047EA811742EA8312A7FB0201B6EB0B0120
:1005000064EB00042B0D43EA0C335E1844EB1C50E3
:10051000DA465146E7FB0201C5F313044FEA0B33F9
:1005200043EA14534FEA0432019C43EA0603A4F160
:100530000C040294009CCDE900B400F0E3F903B090
:10054000BDE8F08F00200146F9E72DE9F04D81EA82
:10055000030404F0004B21F0004514464FF0000A5C
:1005600023F0004150EA050220D054EA01021DD0D8
:10057000C5F30A570246C5F31303C1F31300C1F3D1
:100580000A5640F4801543F48013A7EB0608101BAD
:10059000D64608F2FD3873EB050002D308F10108D6
:1005A00001E092185B41B8F1000F03DA0020014628
:1005B000BDE8F08D00204FF48011064684460EE021
:1005C000171B73EB050705D3121B63EB05030643EB
:1005D0004CEA010C49084FEA300092185B4150EA9E
:1005E0000107EDD152EA030012D082EA040083EA47
:1005F0000501084305D0101BAB4106D201220023A0
:1006000006E000224FF0004302E06FF001025310B9
:100610001AEB06004CEB085110EB0A0041EB0B0102
:10062000BDE8F04D00F05FB996230022114600F0BE
:100630002CB90EB5C10F80EAE0700844CA0700214A
:1006400040F233438DE80E000A460B4600F05AF99B
:1006500003B000BD0EB540F2334102910021CDE957
:1006600000110A460B4600F04DF903B000BD20F022
:100670000040C10DC0F3160040F400007F2901DAEC
:1006800000207047962903DCC1F19601C8407047ED
:10069000963988407047C1F30A5210B5C1F313016F
:1006A00040F2FF3341F480119A4201DA002010BD7C
:1006B00040F233439A42A2F2334203DC524200F04A
:1006C000B9F810BD904010BD00F0004230F000407D
:1006D0000AD0C10D01F56071C0F3160042EA015164
:1006E000C2084007114370470020014670470000D0
:1006F00030B5041E71F1000404DB4FF000444042A9
:1007000064EB0101141E73F1000405DB1C464FF07D
:100710000043524263EB04038B4208BF824230BD68
:1007200030B5041E71F1000404DB4FF00044404278
:1007300064EB0101141E73F1000405DB1C464FF04D
:100740000043524263EB0403994208BF904230BD1C
:1007500001F0004330B421F0004150EA010206D01C
:100760000A0DA2F56072C1F31301002A02DC30BC4D
:1007700000207047440F44EAC104C100E01830BCB7
:1007800000EBC25000F078B830B50B4601460020AF
:100790002022012409E021FA02F59D4205D303FA43
:1007A00002F5491B04FA02F52844151EA2F10102C4
:1007B000F1DC30BD2DE9F05F0546002092469B46F6
:1007C00088460646814640241BE028464146474667
:1007D000224600F02FF853465A46C01A914110D3D2
:1007E00011461846224600F016F82D1A67EB01084C
:1007F0004F4622460120002100F00DF817EB0009BA
:100800004E41201EA4F10104DFDC484631462A4651
:100810004346BDE8F09F202A04DB203A00FA02F1AB
:10082000002070479140C2F1200320FA03F31943DE
:1008300090407047202A04DB203A21FA02F0002180
:10084000704721FA02F3D040C2F1200291400843E0
:1008500019467047202A06DBCB17203A41FA02F0EE
:1008600043EAE07306E041FA02F3D040C2F120020D
:1008700091400843194670470029A8BF7047401CA3
:10088000490008BF20F00100704710B4B0FA80FCA6
:1008900000FA0CF050EA010404BF10BC704749B1E3
:1008A000CCF1200421FA04F411FA0CF118BF012153
:1008B00021430843A3EB0C01CB1D4FEA00614FEA33
:1008C000102042BF002010BC704700EBC350104402
:1008D0000029A4BF10BC7047401C490008BF20F08D
:1008E000010010BC704710B5141E73F1000408DA43
:1008F000401C41F1000192185B411A4301D120F0E4
:10090000010010BD2DE9F04D92469B4611B1B1FAA0
:1009100081F202E0B0FA80F220329046FFF77BFFCE
:1009200004460F4640EA0A0041EA0B0153465A4684
:10093000084313D0114653EA010019D0C8F1400210
:100940005046FFF777FF05460E4650465946424649
:10095000FFF761FF084305D0012004E02046394637
:10096000BDE8F08D0020054346EAE0762C4337438E
:100970000A986305E40AA0EB08000022FD0A44EA95
:1009800047540A3002D500200146E9E70105101955
:100990006941DDE9084500196941BDE8F04DA2E76C
:1009A000C1F30A52C1F3130140F2FF3341F4801145
:1009B0009A4202DA00200146704740F233439A42DD
:1009C000A2F2334202DC5242FFF734BFFFF723BFEB
:1009D000064C074D06E0E06840F0010394E807008C
:1009E00098471034AC42F6D3FFF7B6FB204400081A
:1009F0004044000870B521F0004303430CD0C1F31C
:100A00000A550024D5EB040564EB0403D617AD1A90
:100A1000B34102DB0020014670BD201841EB0251BA
:100A200070BD70B5C1F30A5201F000450024C1F356
:100A3000130140F2FF3341F480119A4201DA0020A1
:100A400070BD40F233439A42A2F2334203DC524279
:100A5000FFF7F0FE00E090402C43F1D0404270BD23
:100A60000029816802D041F0010101E021F001017B
:100A70008160704710B5184800214FF46022016072
:100A80000121017141718260CA02C2600174134C7C
:100A90000146204600F036F8072301220E212046A9
:100AA00000F054F801212046FFF7DAFF204600F05D
:100AB00087F8204600F01EF80028FAD1204600F002
:100AC00084F8204600F00CF80028FAD12046BDE852
:100AD00010400121FFF7C4BF500000200024014056
:100AE000014600208968490700D501207047C06C85
:100AF00080B27047014600208968090700D50120AF
:100B00007047000010B542680E4B0C791A400B6814
:100B100042EA04221343436083680B4A1340D1E93D
:100B2000024222434C7943EA44031A438260C26A78
:100B3000097C22F47002491EC9B242EA0151C16225
:100B400010BD0000FFFEF0FFFDF7F1FF70B50724B8
:100B500009290AD9C568A1F10A0606EB4606B44080
:100B6000A543B3401D43C56007E0056901EB41069D
:100B7000B440A543B3401D4305611F23072A09D292
:100B8000446B521E02EB820293409C4391400C4303
:100B9000446370BD0D2A09D2046BD21F02EB82029E
:100BA00093409C4391400C43046370BDC46A0D3A6A
:100BB00002EB820293409C4391400C43C46270BD9F
:100BC000816841F0080181607047816841F004014B
:100BD00081607047FEE770477FB50121042001F076
:100BE00095F80124ADF80C4004208DF80F0003A9FE
:100BF000134800F031FA0121084601F087F800217E
:100C0000084600F015FA00258DF804500C208DF8E8
:100C1000050000948DF80640684600F0C3F90620F0
:100C20008DF808004FF4A06000F0E8FD8DF8095041
:100C30008DF80A508DF80B4002A800F0ADFD7FBD85
:100C4000000C01402DE9F047012000F09BF900283D
:100C500049D026482D490A23D0F800802448B8F10D
:100C6000000F244A244C254D254E264FDFF898A02E
:100C7000D1F800804FF066394FF0C80C0AD0B8F1B7
:100C8000C80F15DA08F10A08C1F8008001680A39AE
:100C9000016010E0B8F10A0F06DDA8F10A08C1F8FA
:100CA000008001680A31F3E70B60C0F800C002E081
:100CB000C1F800C003601068FFF706FD22462B460E
:100CC000FFF743FC32463B46FFF7CDFB4A4653460F
:100CD000FFF7C9FBFFF73CFD00F09CFDBDE8F047C6
:100CE000012000F049B9BDE8F0870000180000209D
:100CF0000C00002010000020438F183DB7644A40CC
:100D0000835A04AD5D664A3F66660A4008000020CB
:100D10001FB50121102000F0F9FF4FF40054ADF889
:100D20000C4004208DF80F0003A9144800F094F93A
:100D30000121084600F0EAFF0D21022000F078F9B9
:100D400000208DF804000C2000948DF8050001248B
:100D50008DF80640684600F025F928208DF8080037
:100D6000400100F04BFD02208DF809008DF80A00CB
:100D70008DF80B4002A800F00FFD1FBD00100140D0
:100D80002DE9F05F4FF4005B584600F0FBF80028B7
:100D900049D026482D49C823D0F800802448B8F10E
:100DA000000F244A244C254D254E264FDFF898A0ED
:100DB000D1F800804FF066394FF00A0C0AD0B8F134
:100DC0000A0F15DDA8F10A08C1F8008001680A3190
:100DD000016010E0B8F1C80F06DA08F10A08C1F89E
:100DE000008001680A39F3E70B60C0F800C002E038
:100DF000C1F800C003601068FFF766FC22462B466E
:100E0000FFF7A3FB32463B46FFF72DFB4A4653460E
:100E1000FFF729FBFFF79CFC00F0FCFC5846BDE8FF
:100E2000F05F00F0A9B8BDE8F09F000018000020B6
:100E30000C00002010000020438F183DB7644A408A
:100E4000835A04AD5D664A3F66660A40080000208A
:100E50001FB50121082000F059FF4FF40074ADF8D0
:100E60000C4004208DF80F0003A9134800F0F4F89B
:100E70000121084600F04AFF0921012000F0D8F8BE
:100E800000208DF804000C2000948DF8050001244A
:100E90008DF80640684600F085F817208DF80800A8
:100EA00002208DF809000F208DF80A008DF80B4004
:100EB00002A800F071FC1FBD000C01402DE9F05F9D
:100EC0004FF4007000F05EF8002842D02249234819
:100ED000234ED1F800C00368224C234DDFF88C90DC
:100EE000DFF88CA05CEA03084FF000024FF0010726
:100EF0004FF0663B06D0BCF1000F05D0BCF1010FEE
:100F000006D020E00A6007E0012B1CD10F6006E04C
:100F100013B1012B02D016E0076001E00A60026005
:100F20003068FFF7D1FB22462B46FFF70EFB4A46FF
:100F30005346FFF798FA5A460E4BFFF794FAFFF71D
:100F400007FC00F067FCBDE8F05F4FF4007000F0B4
:100F500013B8BDE8F09F0000180000201C0000201E
:100F600010000020438F183DB7644A40835A04ADF7
:100F70005D664A3F66660A400149086070470000A6
:100F800014040140064A014600201268044B0A403E
:100F900014331B680B4202D0002A00D00120704796
:100FA0000004014030B51A498379026853B30B68D5
:100FB00093430B600A1D13680468A343136002790E
:100FC0000A441368046823431360114A0832136803
:100FD0000468A3431360131D1C680568AC431C60C0
:100FE0004479102C05D021440A68006802430A6045
:100FF00030BD11680468214311601968006801431D
:10100000196030BD0079084401689143016030BD2A
:101010000004014008B51020ADF8000000208DF854
:1010200003006946014800F017F808BD00100140B0
:1010300010B58A0721F003040649130F21440F223B
:101040008C689A4094438C608A68984002438A6016
:1010500010BD000000000140F0B5CA78002502F084
:101060000F03D20601D58A7813430A784FF00F0E8A
:1010700012F0FF0F4FF001021CD004680F8802FA33
:1010800005F63740B74211D14FEA850C0EFA0CF73E
:1010900024EA070703FA0CF43C43CF78282F02D048
:1010A000482F02D002E0466100E006616D1C082D69
:1010B000E4D304600C88FF2C1ED944685FF000065E
:1010C00006F1080702FA07F50F882F40AF420FD14B
:1010D0004FEA860C0EFA0CF7BC4303FA0CF73C43BC
:1010E000CF78282F00D14561CF78482F00D10561F6
:1010F000761C082EE4D34460F0BD0000F0B5144C1B
:10110000002801DAE36900E06368420D120185B24C
:10111000C0F301579540C0F30346032F05D0C20228
:101120000AD50322B240934307E023F0706263685C
:1011300023F07063636002E0AB4343F0706201B17F
:101140002A43002801DAE261F0BD6260F0BD0000D0
:10115000000001400AB10161704741617047FEE73C
:1011600070B50646002440F23F11204600F060F9B9
:1011700000F0A0FA4FF49635304600F071FA641C86
:10118000AC42F9D3BDE8704001220421014800F0CF
:1011900023B80000000C014010B500F035FEBDE89A
:1011A00010404FF6FF70FFF7DBBF000008B50121CC
:1011B000082000F0ABFD0420ADF8000003208DF8FE
:1011C000020010208DF8030069460248FFF744FF33
:1011D00008BD0000000C0140FFF7BCBF064B30B457
:1011E0005B68203AD2B21C68DB88534304EB4302AD
:1011F00030BC00F021B80000200000202DE9F041B3
:101200000D46074640F23F140A4E08E02146384694
:10121000FFF7E4FF70688088201A84B26D1C2A787A
:10122000002A05D07168601C80B289888842EDD29E
:10123000BDE8F081200000202DE9F74F90460027FF
:101240000646019900F0F4F81C4C31E000F032FA47
:1012500000254FF00C094FF0800A4FF0010B17E00A
:10126000B0FBF9F1CA000AFA02F138F81720294157
:10127000114201D10C2805D90BFA05F10A4203D11C
:101280000C2801D9608800E0208800F0E9F96D1C85
:1012900060688088A842E3D8012204210848FFF74B
:1012A0009BFF761CF6B23046019900F0C1F87F1C16
:1012B0006068C088B842C9D8BDE8FE8F2000002011
:1012C000000C01402DE9F04798461746894605462F
:1012D000002400F0ADF8114EB8F1000F19D100F064
:1012E000E9F903E0308800F0BBF9641CBC42F9D393
:1012F000BDE8F047012204210948FFF76DBF30889F
:1013000000F0C8F96D1CEDB24946284600F090F88F
:10131000641CBC42F3D3BDE8F0870000200000202D
:10132000000C01402DE9F0411C4615460F460646CB
:1013300000232246FFF7C6FF7019C0B200232246E1
:101340003946FFF7BFFF01232A4639463046FFF7EB
:10135000B9FF381B401C81B22A463046BDE8F04137
:101360000123FFF7AFBF000001484068704700004D
:101370002000002010B586B00121112000F0C6FC2D
:1013800001212448FFF7BAFE0121C80300F0A6FCA2
:101390004FF48060ADF8140003208DF8160018207B
:1013A0001D4C8DF8170005A92046FFF755FEE014E7
:1013B000ADF8140005A92046FFF74EFEA014ADF8C5
:1013C000140005A92046FFF747FE144C204600F004
:1013D000CBFC0021ADF800104FF48270ADF8020094
:1013E000ADF804100220ADF806000120ADF80800A9
:1013F0004002ADF80C10ADF80A00ADF80E106946C9
:10140000204600F0E4FC0121204600F0A3FC06B0D9
:1014100010BD00000011200000100140003C004001
:1014200001B5BDF800000149488008BD200000203A
:1014300010B50C460146202000F046F92146BDE8D3
:101440001040212000F040B901B5BDF8000001496D
:10145000088008BD2000002010B5FFF7A7FEFFF7A9
:1014600089FF052001F080FD4FF40041E52000F0E8
:101470002BF90121002000F027F94FF480710120A1
:1014800000F022F94FF4E061022000F01DF941F272
:101490003001032000F018F90021042000F014F9B5
:1014A00040F20221082000F00FF90021092000F08D
:1014B0000BF900210A2000F007F900210C2000F0B0
:1014C00003F900210D2000F0FFF800210F2000F0AB
:1014D000FBF80021102000F0F7F80021112000F0A7
:1014E000F3F80021122000F0EFF80021132000F0A3
:1014F000EBF8142001F038FD41F2B071102000F03B
:10150000E3F840F23711112000F0DEF8052001F079
:101510002BFD40F23911122000F0D6F8052001F021
:1015200023FD4FF4E851132000F0CEF813212920B9
:1015300000F0CAF8052001F017FD0021202000F07E
:10154000C3F80021212000F0BFF80621302000F070
:10155000BBF840F20111312000F0B6F8032132202F
:1015600000F0B2F84FF48371352000F0ADF840F68A
:101570000231362000F0A8F840F20231372000F0A6
:10158000A3F840F20771382000F09EF807213920B7
:1015900000F09AF84FF4C0613C2000F095F840F25A
:1015A0000B213D2000F090F80021502000F08CF835
:1015B000EF21512000F088F80021522000F084F83B
:1015C00040F23F11532000F07FF84FF42741602094
:1015D00000F07AF80121612000F076F800216A20FD
:1015E00000F072F80021802000F06EF800218120C8
:1015F00000F06AF80021822000F066F800218320C4
:1016000000F062F80021842000F05EF800218520BF
:1016100000F05AF81021902000F056F80021922096
:1016200000F052F80321932000F04EF84FF4887137
:10163000952000F049F80021972000F045F800219E
:10164000982000F041F841F21801032000F03CF826
:10165000BDE8104040F27311072000F035B80000DB
:1016600070B50B4D0446010A284600F0AEFB802100
:10167000284600F0A3FB0028F9D1E1B2284600F08B
:10168000A4FB8021284600F099FB0028F9D170BD09
:10169000003C004010B5044600F00CF82046FFF76F
:1016A000DFFF0122BDE8104004210148FFF794BD8F
:1016B000000C014010B5222000F02EF8BDE81040CB
:1016C000722000F04FB8000070B50C4600F024F80E
:1016D000722000F047F80E4D210A284600F075FBF5
:1016E0008021284600F06AFB0028F9D1E1B22846A3
:1016F00000F06BFB8021284600F060FB0028F9D148
:10170000BDE87040012204210248FFF765BD0000DA
:10171000003C0040000C014070B50546702000F010
:1017200021F80E4C0021204600F04FFB802120467E
:1017300000F044FB0028F9D12946204600F045FB83
:101740008021204600F03AFB0028F9D1BDE8704026
:10175000012204210248FFF73FBD0000003C004089
:10176000000C014010B50446002204210748FFF791
:1017700033FD2146064C204600F027FB8021204601
:1017800000F01CFB0028F9D110BD0000000C014046
:10179000003C0040FEE7704770B50F23C478017825
:1017A0000122F4B1144C2468457804F4E064C4F5D3
:1017B000E064240AC4F10406E3408478B5401C4088
:1017C0002C4301F1E021230181F80034007800F07E
:1017D0001F018A404009800000F1E020C0F800218C
:1017E00070BD01F01F0082404809800000F1E02038
:1017F000C0F8802170BD00000CED00E002490843F4
:1018000002490860704700000000FA050CED00E096
:10181000704700002DE9FC5FFF4C82464FF496773D
:1018200000202760FFF79CFC4FF6E070FFF70CFEEE
:101830004FF48C752B46782239460A20FFF772FD4B
:10184000E0690026012837D100232A4639461E20A8
:10185000FFF738FD00232A4639463220FFF732FDD4
:1018600000232A4639464620FFF72CFD00232A464E
:1018700039465A20FFF726FD00232A4639466E20B6
:10188000FFF720FD00232A4639468220FFF71AFD84
:1018900014276660606890FBF7F107FB110131B90E
:1018A000143081B2012378220A20FFF70BFD606813
:1018B000401C6060A842EDDBA069D84AD84BD94FE4
:1018C00000285FD001287DD10020606160609046D3
:1018D00099465046FEF7F8FEAB46CDE90001606838
:1018E000FEF7A7FE05460E46A068FEF7A2FE42469A
:1018F0004B46FEF7B8FD33462A46FEF7B4FD01F02D
:10190000E5FA02460B46DDE90001FEF7ACFD0022D8
:101910003B46FEF701FD0022C34BFEF701FF7DD8D9
:101920006068FEF786FE05460E46A068FEF781FE5B
:1019300042464B46FEF797FD33462A46FEF793FD97
:1019400001F0C4FA02460B46DDE90001FEF78BFD0B
:1019500000223B46FEF7E0FC0022B44BFEF7C8FE37
:10196000DDD8A268606902EBD271B0EB610F7CDA5E
:1019700000287ADBAE495046FEF75EFCAD49FEF723
:1019800003FCC5E09346984650466660FEF79CFE11
:10199000CDE900016068FEF74CFE05460E46A068E2
:1019A000FEF747FE5F465A464346FEF75CFD2A4671
:1019B0003346FEF758FD01F089FA02460B46DDE991
:1019C000000100E07DE1FEF74EFD964D00222B4622
:1019D000FEF7A2FC0022944BFEF7A2FE51D86068ED
:1019E000FEF727FE06468946A068FEF722FEBB46A4
:1019F0003A464346FEF737FD4B463246FEF733FD87
:101A000001F064FA02460B46DDE90001FEF72BFD0A
:101A100000222F462B46FEF77FFC00E0A2E00022CA
:101A2000824BFEF765FE2CD86068FEF702FE054685
:101A30000E46A068FEF7FDFD5A464346FEF713FD2D
:101A40002A463346FEF70FFD01F040FA05460E46E2
:101A500077495046FEF7F0FBFEF736FE2A4633463E
:101A6000FEF701FD00223B4600E045E0FEF754FC96
:101A7000FEF711FE2188C0B289B201230322FFF7CD
:101A800021FC2068401E20606068401C6060B0F54A
:101A90008C7FFFF67FAFE06960B367A16A4800F012
:101AA00059FAFFF761FC8079674900EB4000400676
:101AB000000EFFF7A3FB65A1634800F04BFAFFF7A8
:101AC00053FC80796049C0EBC000C0B2FFF796FBC1
:101AD000DDE900210B4662A15B4800F03BFAFFF70D
:101AE00043FC8079584900EBC000C0B2FFF786FB89
:101AF000A2686FE05FA1D1E7B0EB610F15DD904206
:101B000013DA4B495046FEF797FB4A49FEF791FB23
:101B1000FEF7ADFD21880123C0B289B24FEA03026E
:101B2000FFF7D0FB6069401C1BE0002863D09042A7
:101B30005ED154495046FEF77FFBFEF798FD85B213
:101B40003B495046FEF778FB3A49FEF772FBFEF739
:101B50008EFD2188C0B289B201232A46FFF7B2FB6D
:101B6000002060612068401E20606068401C60604A
:101B70005845FFF6B4AEE06900284BD02EA132489C
:101B800000F0E8F9FFF7F0FB80792F4900EB400007
:101B90004006000EFFF732FB3BA12B4800F0DAF9BC
:101BA000FFF7E2FB80792849C0EBC000C0B2FFF725
:101BB00025FBDDE900210B4629A1234800F0CAF9E5
:101BC000FFF7D2FB8079204900EBC000C0B2FFF7DD
:101BD00015FBE26831A11C4800F0BCF9FFF7C4FB1B
:101BE0008079BDE8FC5FC006000E1749FFF706BB11
:101BF000B0EB610FB6D123495046FEF71DFBFEF74F
:101C000036FD85B20A495046FEF716FB0949FEF734
:101C100010FB4BE052E00000000000201F85EB515C
:101C2000B81E094000805140000024400040604040
:101C30000000204100008C424D617A67616C3A20BF
:101C40004163696B000000003400002044616C6750
:101C5000612053656B6C693A2053696E757300009F
:101C6000476572696C696D3A2025322E33662056BD
:101C7000000000004D617A67616C3A204B61706131
:101C80006C6900000000A04144616C6761205365ED
:101C90006B6C693A204B6172650000004672656B9F
:101CA000616E733A20256420485A0000FEF7DFFC7D
:101CB0002188C0B289B201232A4631E7AFF24C0134
:101CC0005DE7BDE8FC9F0000034A516821F44041F4
:101CD000014351607047000000100240044A00298F
:101CE000D16901D0014300E08143D1617047000018
:101CF00000100240044A0029116901D0014300E0AC
:101D0000814311617047000000100240044A00291D
:101D1000916901D0014300E0814391617047000067
:101D200000100240044A0029D16801D0014300E0BC
:101D30008143D160704700000010024010B54FF49D
:101D40008040FFF7C1FFBDE8104001214FF404704F
:101D5000FFF7DCBF0029018802D041F0400101E01B
:101D600021F0400101807047114910B588420AD125
:101D7000841401212046FFF7D5FF2046BDE810401E
:101D80000021FFF7CFBF0B49884202D10121041483
:101D900004E0094988420AD10121C4132046FFF713
:101DA000A9FF2046BDE810400021FFF7A3BF10BDEA
:101DB0000030014000380040003C00400246002056
:101DC00012890A4200D0012070478181704730B5E6
:101DD00002884C8802F441530A88CD8822438C88BB
:101DE0002C4322430C8922434C8922438C89224371
:101DF000CC8922431A430280828B22F400628283C0
:101E0000098A018230BD000010B5FFF725FB0248AA
:101E1000A0F10801486010BD2800002070470000B4
:101E20000CB500212E4801910091026842F48032E5
:101E300002604FF4A063026802F400320092019A3B
:101E4000521C0192009A12B9019A9A42F3D1026887
:101E5000920342D50121009122490A6842F0100202
:101E60000A600A6822F003020A600A6842F002026D
:101E70000A604168416041684160416841F48061A5
:101E80004160C16A184A1140C162C16A174A1143D0
:101E9000C162016841F08061016001680901FCD5FF
:101EA000416821F47C114160416841F4E8114160CE
:101EB000016841F08071016001688901FCD54168C9
:101EC00021F003014160416841F002014160416835
:101ED000C1F381010229FAD10CBD00910CBD0000B3
:101EE000001002400020024000F0FEFF4406010006
:101EF00070470000124810B5016841F0010101600F
:101F00004168104A1140416001680F4A1140016068
:101F1000016821F480210160416821F4FE014160E3
:101F2000016821F0A05101604FF47F018160002120
:101F3000C162FFF775FF05494FF00060086010BDF2
:101F4000001002400000FFF0FFFFF6FE08ED00E089
:101F5000FEE700000FB4084B10B504A902AA0398CD
:101F600000F018FC044602A9002000F0AAFF204659
:101F700010BC5DF814FB0000C32E0008490050EAB5
:101F8000C12018BF04204A0D18BF40F0010040F2E4
:101F9000FF72B2EB515F08BF40F00200012808BF9A
:101FA000052070472DE9F74F144694B00021C4E98D
:101FB00002111599079121F00045C9498D4206DCAF
:101FC0001599C4E9000117B00020BDE8F08FC5499C
:101FD000DFF814A3A9423CDD0799C44E0029C44F81
:101FE000C44A1599534619DDFEF737FA554506D010
:101FF000C14AC24BFEF731FAC4E900010AE04FF0D2
:10200000D352BE4BFEF729FA32463B46FEF725FA7D
:10201000C4E9000117B00120BDE8F08FFEF77CF99C
:10202000554506D0B44AB54BFEF776F9C4E9000130
:102030000AE04FF0D352B14BFEF76EF932463B4601
:10204000FEF76AF9C4E9000117B04FF0FF30BDE8B0
:10205000F08FAB49A942159978DB21F00041834606
:102060008846A84AA84BFEF7FEF90022A74BFEF7C8
:1020700053F9FEF7D6FC0990FEF7DBFA06460F4649
:102080009C4A5346FEF7EFF943465A46FEF7E8F9F5
:1020900080468A46984A994B30463946FEF7E3F91E
:1020A0002A0D01250B9242465346FEF7D9F9032D1E
:1020B000C4E9000139D00B98C1F30A51401A05EB6D
:1020C00045111139814230DA9148C346784400EB1A
:1020D0000510CDF80CA00C90D0E90023304639460D
:1020E000FEF7C1F902460B46049106905846039943
:1020F000FEF7B3F980468A4602460B4658460399D6
:10210000FEF7ABF9049B069AFEF7A7F983460C98F5
:1021100003913946D0E902233046FEF7A4F95A4626
:10212000039BFEF79AF96D1CBDE707980028A2BF34
:10213000099817B0BDE8F08F616881F000416160D7
:10214000099817B04042BDE8F08FFFE78446159824
:10215000C1F31301C0F30A50A0F2F5304FEA601842
:1021600000F01F06C6F12000139000200690079093
:1021700041F4801E05206D4676B1664A08EB0001E9
:102180007A4452F8213002EB8101B3404A68139936
:1021900022FA01F1194305E05F4908EB0002794496
:1021A00051F82210A1FB0E27A1FB0C131A449A42EE
:1021B00034BF0123002303EB070A05EB8003D3E9B7
:1021C00001B70F448F4234BF0121002193448B4457
:1021D00011B1934502D903E0934501D2012100E0FA
:1021E0000021C3E901B7514445F82010011EA0F1B8
:1021F0000100C1DC0298059F00F10050800F129091
:102200000298DDE903568000FEF713FA834628465C
:102210000D91FEF71FFA6FF01D02FEF7EBFBCDE903
:102220000E013046FEF716FA6FF03D02FEF7E2FBB4
:1022300080468A463846FEF70DFA6FF05D02FEF7DB
:10224000D9FB0746424653461191FEF765F8DDE992
:102250000E23FEF761F85A460D9BFEF75DF8002548
:102260000E465A4628460D9BFEF7F7F8DDE90E2389
:10227000FEF7F3F842465346FEF7EFF83A46119B55
:10228000FEF7EEF8DFF898A0244A5346FEF7EBF885
:1022900007468846234A244B31462846FEF7E3F892
:1022A0003A464346FEF738F8074688464FF0A842BC
:1022B000534631462846FEF7D6F83A464346FEF7DF
:1022C0002BF8159A12F0004F04D0129A81F00041B9
:1022D00052421292C4E90001129817B0BDE8F08F83
:1022E000FB21E93F7CD90240FB21F93F7370032EAB
:1022F0008A19A33B000040543163621A61B4D03D97
:10230000FB21394183C8C96D305FE43F0000E03FE5
:1023100060220000DC210000BE210000182D445482
:10232000FB21F93D3326A611460B113C2DE9FF4D4B
:1023300021F0004807460C46B8F1795F08DAFEF74D
:1023400070FB002801BF0020324904B0BDE8F08DC9
:102350003A46234610461946FEF785F805460246DA
:102360002D480E460B460621784400F05DF82A46BB
:102370003346FEF778F8DDE9022382468B4638467D
:102380002146FEF770F804460F4652465B46284643
:102390003146FEF768F822463B46FEF75EF80746F0
:1023A0008A464FF0FF3228463146FEF723FB1B4A90
:1023B00090450ADA3A465346FEF74FF804B0002239
:1023C000BDE8F04D134BFEF74BB8154A4245A8BF88
:1023D000A8F500154FF00004B8BF124D22462B4659
:1023E000FEF73BF80646884622462B460020094960
:1023F000FEF733F804460D463A465346304641460A
:10240000FEF72BF804B022462B46BDE8F04DFEF750
:1024100027B800000000F03F941F00003333D33F83
:102420000000E93F0000D23F2DE9F0414F1E00EBD4
:10243000C7010446D1E9000115461E4637F00602E1
:102440000DD02A463346FEF70EF87F1E04EBC70375
:10245000D3E90023FDF760FF37F00602F1D1022F28
:1024600025D0042F13D0062F18BFBDE8F0812A46CF
:102470003346FDF7F8FFD4E90A23FDF74DFF2A465E
:102480003346FDF7F0FFD4E90823FDF745FF2A4660
:102490003346FDF7E8FFD4E90623FDF73DFF2A4662
:1024A0003346FDF7E0FFD4E90423FDF735FF2A4664
:1024B0003346FDF7D8FFD4E90223FDF72DFF2A4666
:1024C0003346FDF7D0FFD4E90023BDE8F041FDF726
:1024D00023BF00002DE9FF4D054621F0004084B0E8
:1024E0000C46B0F1795F0BDA2846FFF747FD042868
:1024F00008BF00F06FF8284608B02146BDE8F08D0F
:102500002A460B461046FDF7AEFF06460F462A4602
:102510002346FDF7A8FF804626488A4632463B46BA
:1025200005217844FFF780FF83461098029160B33D
:10253000214A224B40465146FDF795FFCDE9000167
:102540005A4640465146029BFDF78DFF824688461B
:10255000DDE906014FF0FF32FEF74CFA52464346E2
:10256000FDF77BFF32463B46FDF77DFFDDE90623A5
:10257000FDF773FFDDE90023FDF76FFF08B02A4682
:102580002346BDE8F04DFDF76BBF0B465A4630467B
:102590003946FDF768FF084A084BFDF7BDFE424685
:1025A0005346FDF760FF08B02A462346BDE8F04DCC
:1025B000FDF7B2BED21E0000495555555555C5BF51
:1025C0000122FEF717BA0022134610461146FDF706
:1025D000BCBF0000024A00201107FEF70BBA000042
:1025E00001FDFFFF02E008C8121F08C1002AFAD14E
:1025F00070477047002001E001C1121F002AFBD183
:10260000704700000149086070470000300000205A
:102610002DE9FF5F82B00021DDE90430020DDDF815
:1026200040B0034318D044F61050A2F2FF324243A8
:102630001514119801281FD0A5EB0B00401C5FEA70
:10264000000A4FF000064E4FDFF83891B046504672
:1026500015D5CAF1000413E0119801244AA30128FA
:1026600001D16FEA0B010298119AC0E90031C0E96B
:10267000024206B0BDE8F09FCBF10000DFE7044660
:102680000021404A491842EB0450CDE9001012E005
:10269000E00707D032463B4640464946FDF7E3FE99
:1026A0008046894632463B4610461946FDF7DBFE1A
:1026B00006460F466410002CEAD1DDE90401DDE98D
:1026C0000023BAF1000F06DAFDF7CDFE42464B4675
:1026D000FDF7C9FE05E0FDF738FF42464B46FDF722
:1026E00034FF04460E460022284BFEF719F803D8A3
:1026F0004FF0FF30014607E00022254B20463146CF
:10270000FDF70AFEFEF74CF9102409E0002C0ADB65
:102710000A220023FEF74EF8039B30321A55641E3E
:1027200050EA0102F2D1641C039AC4F1110314446B
:10273000119A012A03D0012208430DD10AE008436F
:1027400004D000204FF0110B119072E7A3EB0B05A2
:102750006D1E0DE05B4504DD4FF0000205F1010543
:1027600004E003DA4FF00002A5F10105002AECD0E5
:1027700002981199C0E90231C0E9004579E70000EB
:10278000000014400000F03F300000000000F04363
:102790000000E03F2DE9FF4F95B09B468946064675
:1027A00000250FE2252877D100242746F84A012189
:1027B000059400E0044316F8013F203B01FA03F0C2
:1027C0001042F7D130782A2811D06FF02F033078DB
:1027D000A0F13002092A16D8059A44F0020402EB4F
:1027E000820203EB42021044761C0590EFE759F891
:1027F000042B0592002A03DA504244F40054059059
:1028000044F00204761C30782E2816D116F8010FF9
:1028100044F004042A280DD06FF02F023078A0F184
:102820003003092B09D807EB870302EB4303C718D2
:10283000761CF3E759F8047B761C30786C280FD0AF
:1028400006DC4C2817D068280DD06A2814D104E083
:10285000742810D07A280FD10DE044F400140AE057
:1028600044F4801401E044F440147278824202D1AE
:1028700004F58014761C761C307866280BD013DCA7
:10288000582877D009DC002875D04528F6D046288E
:10289000F4D047281AD19DE118E0632835D0642888
:1028A00079D0652812D195E1702873D008DC6728AB
:1028B000F1D069286FD06E280DD06F2806D1B5E011
:1028C00073282CD0752875D0782874D05A4617995B
:1028D00090476D1C75E1C4F30250022809D003280B
:1028E0000DD0D9F8001004280DD00D6009F10409AD
:1028F00067E1D9F80010EA17C1E90052F6E7D9F804
:1029000000100D80F2E70D70F0E719F8041B8DF848
:10291000001000208DF80100EA46012003E059F87C
:1029200004AB4FF0FF3061074FF0000102D40DE01F
:1029300008F101018846B9420FDA8045F8DB1AF840
:1029400008100029F4D108E008F10101884681420D
:10295000FADB1AF808100029F6D105985B46A0EBBF
:10296000080721463846179A00F094FA284400EBED
:10297000080507E04DE029E10DE01AF8010B5A4681
:1029800017999047B8F10108F7D25B4621463846BF
:10299000179A13E142E00A220092C4F302524FF068
:1029A000000A022A08D059F804CB032A4FEAEC7136
:1029B0000AD00DE029E02AE009F1070121F0070221
:1029C000F2E802C1914609E00FFA8CFC4FEAEC7183
:1029D000042A03D14FFA8CFC4FEAEC71002907DA84
:1029E0000A460021DCF1000C61EB02012D2202E01D
:1029F000220504D52B228DF80420012203E0E207F2
:102A000001D02022F7E7904659E00A2102E0102287
:102A10000DE010214FF0000A00910BE010224FF062
:102A2000000A44F004040827009203E008224FF053
:102A3000000A0092C4F30252022A05D059F804CBCE
:102A40000021032A08D009E009F1070121F007025B
:102A5000F2E802C1914605E01FFA8CFC042A01D17C
:102A60000CF0FF0C4FF00008220728D5702806D084
:102A7000009B83F0100353EA0A0305D00EE04022C6
:102A80008DF80420012208E05CEA010206D0302221
:102A90008DF804208DF8050002229046009B83F0FB
:102AA000080353EA0A030AD15CEA010201D1620772
:102AB00005D530228DF804204FF001087F1E5828DC
:102AC00004D034A003900EA802900DE036A0F9E7E0
:102AD00053466046009AFDF76DFE84460398825C7B
:102AE0000298401E029002705CEA0100F0D1029848
:102AF00006A9081A00F1200A600702D524F48034E0
:102B000000E00127574502DDA7EB0A0000E00020A6
:102B100000EB0A01009005984144401A0590E0033B
:102B200006D45B462146179A059800F0B3F9054490
:102B3000002706E001A85A46C05D179990476D1C12
:102B40007F1C4745F6DBE0030CD55B462146179A10
:102B5000059800F09FF9054404E030205A46179983
:102B600090476D1C0099481E00900029F5DC08E094
:102B7000029802995A460078491C02911799904789
:102B80006D1CBAF10001AAF1010AF1DC65E1000057
:102B90000928010030313233343536373839616233
:102BA00063646566000000003031323334353637F7
:102BB00038394142434445460000000000F058F9CE
:102BC0000544761C307800287FF4ECAD19B0284617
:102BD000BDE8F08F620700D4062709F1070222F052
:102BE000070CFCE80223E14603F000485FEA080C0A
:102BF00002D00FF2702C0DE05FEA045C02D50FF2F8
:102C0000682C07E05FEAC47C02D00FF2602C01E080
:102C1000AFF2700C4FF0FF3823F00043CDF850C0F6
:102C200065280CD006DC452809D046281DD0472849
:102C30003DD13DE0662818D067287ED138E00021DC
:102C4000112F01DB112000E0781CCDE9000106A95D
:102C50000EA8FFF7DDFCDDE90F010E9A03910021BC
:102C6000009207F1010A04914DE04FF000400097F7
:102C7000CDE9011006A90EA8FFF7CAFCDDE90F0295
:102C800003920E9B11990022DDF80CA00093049290
:102C900011B9791C00EB010AB7EB0A0004D4C0F1AA
:102CA000FF3007F1010A0490AAEB0700019044E00D
:102CB000012F00DA01270021112F01DD112000E092
:102CC0003846CDE9000106A90EA8FFF7A1FCDDE911
:102CD0000F010E9A0391002104910092BA46210738
:102CE0000CD40399514500DA8A46BAF1010F05DD8B
:102CF000009AAAF10101515C302908D0B84202DAE9
:102D000010F1040F06DA0121CDE9011015E0AAF156
:102D10000101E9E7002805DC049901440491AAEBCC
:102D2000000102E0411C514500DD8A460499401A29
:102D3000401C01904FF000400290200704D40198FD
:102D4000504501DBCDF8048000208DF84F0002983B
:102D50000DF14F07B0F1004F25D02B200E900298B7
:102D60004FF0020800280CDA404202902D200E900D
:102D700007E00A210298FDF707FD3031029007F8BD
:102D8000011DB8F10001A8F10108F2DC0298002849
:102D9000EFD1791E0E980870307800F0200040F0D6
:102DA000450007F8020D12A8C01B00F1070814988F
:102DB000007800B1012000EB0A01019801EBE071FD
:102DC00005984144401A401E0590E00306D45B4636
:102DD0002146179A059800F05DF80544149800788C
:102DE00018B15A46179990476D1CE00324D55B46ED
:102DF0002146179A059800F04DF805441CE0049808
:102E0000002807DBDDE90301884203DD0098405C10
:102E1000179901E0179930205A469047049805F118
:102E20000105401C04900198401E019004D12E2001
:102E30005A46179990476D1CBAF10001AAF1010A90
:102E4000DDDC05E017F8010B5A46179990476D1C19
:102E5000B8F10001A8F10108F4DC5B462146179A9D
:102E60000598ABE62D0000002B00000020000000BC
:102E70002DE9F041044600251E461746880404D477
:102E800005E039462020B0476D1C641EF9D5284660
:102E9000BDE8F0812DE9F041044600251E4690462C
:102EA000C80301D5302700E02027880404D505E0B9
:102EB00041463846B0476D1C641EF9D52846BDE82A
:102EC000F0810A68531C0B601070704700B5244BEA
:102ED00021F0004287B09A42DCBF0022134629DD70
:102EE000204B9A4208D140B94FF00100FFF78AFB0E
:102EF000FFF769FB07B000BD03DBFFF761FB07B01D
:102F000000BD02AAFFF74EF810F0030104BF0DF157
:102F1000080C9CE80F000DD0012001290ED00229D9
:102F200014D00DF1080C00909CE80F00FFF7D2FAC6
:102F300007B000BDFFF7FAF907B000BD0DF1080CAE
:102F400000909CE80F00FFF7C5FA05E00DF1080CB2
:102F50009CE80F00FFF7EAF907B081F0004100BDDF
:102F6000FB21E93F0000F07F01B581B004490198E1
:102F700048430090002801D0401EFAE70CBD000035
:102F8000A08601002DE9F041C1F30A52A2F2FF36FA
:102F90002F4A304B0D460446142E2FDA002E12DA3B
:102FA000FDF7BAF900221346FDF7BAFB4CD2002D0B
:102FB000A4BF0024254647DA25F00040204318BF6F
:102FC000254D41D018E0DFF894C02CFA06F705EA49
:102FD000070C5CEA040C08BFBDE8F081FDF79CF922
:102FE00000221346FDF79CFB2ED2002D03DA4FF48E
:102FF0008010F0400544BD43002425E0332EC8BFB7
:10300000BDE8F081A6F1140C4FF0FF3727FA0CF75A
:103010003C4208BFBDE8F081FDF722FA00221346CA
:10302000FDF77EFB10D2002D0DDA142E08BF6D1CAB
:1030300009D0C6F13400012101FA00F02044A04279
:1030400038BF6D1C0446BC4329462046BDE8F081CC
:103050009C7500883CE4377E0000F0BFFFFF0F0046
:103060000025FEF76BFEFDF7D5FFFEF795F81F2054
:10307000FEF7EAF90020FEF7D3F9FDF7ADFDFDF705
:1030800047FEFDF7E5FEFDF7F5FCDFF880A0DFF871
:1030900080B0DFF880804FF47A795046FDF727FD45
:1030A000FDF7C2FA0646C8F81000B5FBF9F0FDF7C7
:1030B000D1FAFFF767FF07460C4659463046FDF741
:1030C000EDF8FDF701FBFFF75DFF3A462346FDF7FC
:1030D0000FFBE2D04446D8F81000FDF7F5FA0E4A8F
:1030E0000E4BFDF732FA0E4A0E4BFDF7BCF94FF0CE
:1030F00066320D4BFDF7B7F9FDF72AFBFEF78AFBA9
:103100002069FDF7B4FA85B2C7E70000002401404A
:1031100000007A4400000020438F183DB7644A4005
:10312000835A04AD5D664A3F66660A4000000000AF
:10313000000000000000000000000000000000008F
:10314000000000000000000000000000000000007F
:1031500000000000000000000000000000008001EE
:103160008001800180018001800180018001800157
:103170008001800180018001000000008001800149
:10318000000000000000000000000000000000003F
:10319000CC00CC00CC00CC00CC00CC000000000067
:1031A000000000000000000000000000000000001F
:1031B000000000000000000000000000000000000F
:1031C0000000000000000000600C600C600C300685
:1031D0003006FE1FFE1F300638071803FE1FFE1FB5
:1031E000180318038C018C018C0100000000800082
:1031F000E003F80F9C0E8C1C8C188C009800F801D2
:10320000E007800E801C8C188C189C18B80CF00FEE
:10321000E0038000800000000000000000000000CB
:1032200000000E181B0C110C1106110611031103DE
:103230009B018E01C038C06C60446044304430440F
:103240001844186C0C380000000000000000E00179
:10325000F0033807180618063003F001F000F800F4
:103260009C310E33061E061C061C063FFC73F02123
:10327000000000000000000000000000000000004E
:103280000C000C000C000C000C000C0000000000F6
:10329000000000000000000000000000000000002E
:1032A000000000000000000000000000000000021C
:1032B00000038001C000C0006000600030003000EA
:1032C000300030003000300030003000600060001E
:1032D000C000C000800100030002000000002000C8
:1032E0006000C000800180010003000300060006AA
:1032F00000060006000600060006000600030003A4
:1033000080018001C000600020000000000000007B
:103310000000000000000000C000C000D806F80750
:10332000E00130033807000000000000000000004A
:10333000000000000000000000000000000000008D
:103340000000000000000000800180018001800179
:103350008001FC3FFC3F80018001800180018001F1
:10336000000000000000000000000000000000005D
:10337000000000000000000000000000000000004D
:1033800000000000000000000000000000008001BC
:10339000800100010001800000000000000000002A
:1033A000000000000000000000000000000000001D
:1033B00000000000E007E00700000000000000003F
:1033C00000000000000000000000000000000000FD
:1033D00000000000000000000000000000000000ED
:1033E0000000000000000000000000000000C0001D
:1033F000C000000000000000000000000000000C01
:10340000000C000600060006000300030003800312
:10341000800180018001C000C000C0006000600029
:103420000000000000000000000000000000E003B9
:10343000F007380E180C0C180C180C180C180C1877
:103440000C180C180C180C18180C380EF007E003A8
:10345000000000000000000000000000000000016B
:103460008001C001F0019801880180018001800184
:103470008001800180018001800180018001800144
:103480000000000000000000000000000000E00359
:10349000F80F180C0C180C1800180018000C000677
:1034A00000038001C000600030001800FC1FFC1FFA
:1034B0000000000000000000000000000000E0012B
:1034C000F807180E0C0C0C0C000C0006C003C0070B
:1034D000000C001800180C180C18180CF807E00362
:1034E0000000000000000000000000000000000CD0
:1034F000000E000F000F800DC00C600C600C300C33
:10350000180C0C0CFC3FFC3F000C000C000C000CD9
:103510000000000000000000000000000000F80FA4
:10352000F80F180018000C00EC03FC071C0E001C20
:103530000018001800180C181C0C180EF807E003EF
:103540000000000000000000000000000000C007B4
:10355000F00F381C181818000C00CC03EC0F3C0EB0
:103560001C1C0C180C180C18181C380EF007E00363
:103570000000000000000000000000000000FC1F30
:10358000FC1F000C00060006000380038001C00140
:10359000C000E000600060007000300030003000CB
:1035A0000000000000000000000000000000E00338
:1035B000F007380E180C180C180C3806F007F00736
:1035C000180C0C180C180C180C18380CF80FE00319
:1035D0000000000000000000000000000000E00308
:1035E000F007380E1C0C0C180C180C181C1C381E7C
:1035F000F81BE0190018000C000C1C0EF807F00175
:1036000000000000000000000000000000000000BA
:1036100000000000000000008001800100000000A8
:103620000000000000000000000000008001800198
:10363000000000000000000000000000000000008A
:103640000000000000000000800180010000000078
:103650000000000000000000000000008001800168
:1036600000010001800000000000000000000000D8
:103670000000000000000000000000000010001C1E
:10368000800FE003F8001800F800E003800F001C32
:10369000001000000000000000000000000000001A
:1036A000000000000000000000000000F81F000003
:1036B00000000000F81F00000000000000000000F3
:1036C00000000000000000000000000000000000FA
:1036D00000000000000000000000000008003800AA
:1036E000F001C007001F0018001FC007F0013800DC
:1036F0000800000000000000000000000000E003DF
:10370000F80F180C0C180C180018000C0006000319
:103710008001C000C000C00000000000C000C00068
:103720000000000000000000000000000000000099
:10373000E00718180420C229224A11440944094408
:10374000094409221113E20C024004201818E00772
:1037500000000000000000000000000000008003E6
:103760008003C006C006C006600C600C301830181C
:103770003018F83FF83F1C700C600C6006C006C0A3
:103780000000000000000000000000000000FC033A
:10379000FC0F0C0C0C180C180C180C0CFC07FC0F74
:1037A0000C180C300C300C300C300C18FC1FFC07C3
:1037B0000000000000000000000000000000C00742
:1037C000F01F38381C300C7006600600060006003A
:1037D00006000600060006600C701C30F01FE007B3
:1037E0000000000000000000000000000000FE03D8
:1037F000FE0F060E06180618063006300630063094
:1038000006300630063006180618060EFE0FFE03B8
:103810000000000000000000000000000000FC3F6D
:10382000FC3F0C000C000C000C000C00FC1FFC1FEB
:103830000C000C000C000C000C000C00FC3FFC3FCA
:103840000000000000000000000000000000F83F41
:10385000F83F18001800180018001800F81FF81F8B
:103860001800180018001800180018001800180098
:103870000000000000000000000000000000E00F59
:10388000F83F3C780E6006E007C00300030003FE2B
:1038900003FE03C007C006C00EC03CF0F83FE00FB7
:1038A00000000000000000000000000000000C30DC
:1038B0000C300C300C300C300C300C30FC3FFC3F2A
:1038C0000C300C300C300C300C300C300C300C3018
:1038D0000000000000000000000000000000800167
:1038E00080018001800180018001800180018001D0
:1038F00080018001800180018001800180018001C0
:1039000000000000000000000000000000000006B1
:103910000006000600060006000600060006000677
:10392000000600060006180618063807F003E00136
:103930000000000000000000000000000000063051
:103940000618060C060606038601C6006600760009
:10395000DE008E0106030606060C06180630066019
:10396000000000000000000000000000000018003F
:103970001800180018001800180018001800180087
:10398000180018001800180018001800F81FF81F79
:1039900000000000000000000000000000000EE039
:1039A0001EF01EF01EF036D836D836D836D866CC83
:1039B00066CC66CCC6C6C6C6C6C6C6C686C386C3E1
:1039C00000000000000000000000000000000C30BB
:1039D0001C303C303C306C306C30CC30CC308C31D6
:1039E0000C330C330C360C360C3C0C3C0C380C30C5
:1039F0000000000000000000000000000000E007E0
:103A0000F81F1C380E70066003C003C003C003C05B
:103A100003C003C003C006600E701C38F81FE00727
:103A20000000000000000000000000000000FC0F8B
:103A3000FC1F0C380C300C300C300C300C18FC1FF8
:103A4000FC070C000C000C000C000C000C000C001F
:103A50000000000000000000000000000000E0077F
:103A6000F81F1C380E70066003E003C003C003C0DB
:103A700003C003C007E006630E3F1C3CF83FE0F7BD
:103A800000C0000000000000000000000000FE0F69
:103A9000FE1F06380630063006300638FE1FFE07C9
:103AA00006030606060C06180618063006300660E1
:103AB0000000000000000000000000000000E00323
:103AC000F80F1C0C0C180C180C001C00F803E00F6D
:103AD000001E0038063006300E301C1CF80FE007C0
:103AE0000000000000000000000000000000FE7F59
:103AF000FE7F8001800180018001800180018001C2
:103B000080018001800180018001800180018001AD
:103B100000000000000000000000000000000C3069
:103B20000C300C300C300C300C300C300C300C30B5
:103B30000C300C300C300C300C301818F81FE0072B
:103B40000000000000000000000000000000036012
:103B50000630063006300C180C180C18180C180C0F
:103B6000380E30063006700760036003C001C001E4
:103B700000000000000000000000000000000360E2
:103B8000C361C361C36166336633663366336633CC
:103B900066336C1B6C1B6C1B2C1A3C1E380E380ECB
:103BA00000000000000000000000000000000FE026
:103BB0000C7018303018700C600EC0078003800342
:103BC000C003E006700C301C18180C300E6007E0C3
:103BD000000000000000000000000000000003C022
:103BE00006600C301C383818300C6006E007C00343
:103BF00080018001800180018001800180018001BD
:103C00000000000000000000000000000000FC7F39
:103C1000FC7F006000300018000C000600038001EB
:103C2000C0006000300018000C000600FE7FFE7F20
:103C30000000000000000000000000000000E003A1
:103C4000E0036000600060006000600060006000F1
:103C50006000600060006000600060006000600064
:103C6000600060006000E003E0030000000030003E
:103C70003000600060006000C000C000C000C001F3
:103C8000800180018001000300030003000600069C
:103C90000000000000000000000000000000E00341
:103CA000E00300030003000300030003000300031C
:103CB00000030003000300030003000300030003EC
:103CC000000300030003E003E00300000000000025
:103CD000C001C00160036003600330063006180CA9
:103CE000180C0000000000000000000000000000B0
:103CF00000000000000000000000000000000000C4
:103D000000000000000000000000000000000000B3
:103D10000000000000000000000000000000FFFFA5
:103D2000FFFF0000000000000000000000000C0089
:103D30000C000C000C000C000C0000000000000047
:103D40000000000000000000000000000000000073
:103D50000000000000000000000000000000000063
:103D60000000000000000000F003F8071C0C0C0C21
:103D7000000FF00FF80C0C0C0C0C1C0FF80FF018C7
:103D8000000000000000000000000000000018001B
:103D90001800180018001800D803F80F380C18186D
:103DA00018181818181818181818380CF80FD803FD
:103DB0000000000000000000000000000000000003
:103DC0000000000000000000C003F007300E180CD7
:103DD0001800180018001800180C300EF007C00367
:103DE00000000000000000000000000000000018BB
:103DF0000018001800180018C01BF01F301C1818FD
:103E000018181818181818181818301CF01FC01B8C
:103E100000000000000000000000000000000000A2
:103E20000000000000000000C003F00F300C181864
:103E3000F81FF81F180018003818301CF00FC007C2
:103E40000000000000000000000000000000800FE3
:103E5000C00FC000C000C000F007F007C000C000E5
:103E6000C000C000C000C000C000C000C000C00052
:103E70000000000000000000000000000000000042
:103E80000000000000000000E00DF80F180E0C0C00
:103E90000C0C0C0C0C0C0C0C0C0C180EF80FE00D90
:103EA000000C0C0C1C06F807F001000000001800C4
:103EB0001800180018001800D807F80F381C181838
:103EC0001818181818181818181818181818181872
:103ED0000000000000000000000000000000C00022
:103EE000C000000000000000C000C000C000C00012
:103EF000C000C000C000C000C000C000C000C000C2
:103F00000000000000000000000000000000C000F1
:103F1000C000000000000000C000C000C000C000E1
:103F2000C000C000C000C000C000C000C000C00091
:103F3000C000C000C000F8007800000000000C00C5
:103F40000C000C000C000C000C0C0C060C038C017B
:103F5000CC006C00FC009C018C030C030C060C0CC8
:103F60000000000000000000000000000000C00091
:103F7000C000C000C000C000C000C000C000C00041
:103F8000C000C000C000C000C000C000C000C00031
:103F90000000000000000000000000000000000021
:103FA00000000000000000007C3CFF7EC7E383C1EE
:103FB00083C183C183C183C183C183C183C183C1E1
:103FC00000000000000000000000000000000000F1
:103FD00000000000000000009807F80F381C1818B7
:103FE0001818181818181818181818181818181851
:103FF00000000000000000000000000000000000C1
:104000000000000000000000C003F00F300C181882
:1040100018181818181818181818300CF00FC003B2
:104020000000000000000000000000000000000090
:104030000000000000000000D803F80F380C18182A
:1040400018181818181818181818380CF80FD8035A
:1040500018001800180018001800000000000000E8
:104060000000000000000000C01BF01F301C1818EA
:1040700018181818181818181818301CF01FC01B1A
:1040800000180018001800180018000000000000B8
:104090000000000000000000B007F00370003000D6
:1040A0003000300030003000300030003000300090
:1040B0000000000000000000000000000000000000
:1040C0000000000000000000E003F003380E180CB0
:1040D0003800F003C007000C180C380EF007E0039E
:1040E00000000000000000000000000000000000D0
:1040F0008000C000C000C000F007F007C000C00092
:10410000C000C000C000C000C000C000C0078007E1
:10411000000000000000000000000000000000009F
:1041200000000000000000001818181818181818CF
:1041300018181818181818181818381CF01FE01933
:10414000000000000000000000000000000000006F
:1041500000000000000000000C18180C180C180CCF
:10416000300630063006600360036003C001C00102
:10417000000000000000000000000000000000003F
:104180000000000000000000C141C141C361636341
:10419000636363633636363636361C1C1C1C1C1CA7
:1041A000000000000000000000000000000000000F
:1041B00000000000000000001C38381C300C6006B5
:1041C00060036003600360036006300C381C1C3819
:1041D00000000000000000000000000000000000DF
:1041E000000000000000000018303018301870186F
:1041F000600C600CE00CC006C006800380038003E6
:1042000080018001C001F00070000000000000008B
:104210000000000000000000FC1FFC1F000C000656
:1042200000038001C000600030001800FC1FFC1F6C
:10423000000000000000000000000000000000037B
:104240008001C000C000C000C000C000C00060000D
:104250006000300060004000C000C000C000C0002E
:10426000C000C000800100030000000000008001C9
:104270008001800180018001800180018001800136
:104280008001800180018001800180018001800126
:104290008001800180018001800100000000600039
:1042A000C000C00180018001800180018001000305
:1042B00000030006000300018001800180018001ED
:1042C00080018001C00060000000000000000000CC
:1042D000000000000000000000000000F010F81FC7
:1042E000080F0000000000000000000000000000B7
:1042F00000000000000000000000000000000000BE
:104300004C5555555555A53F7751C1166CC156BFF3
:104310009015CB19A001FA3EAD529C804F7E92BE03
:10432000C4B1B4BD9EEE213ED43888BEE9FAA8BD22
:1043300000004054FB21F93F3163621A61B4D03D63
:104340000000601A61B4D03D7370032E8A19A33B3C
:104350000000002E8A19A33BC14920259A837B398E
:1043600000000000000000006E83F9A22915444EF1
:10437000D15727FCC0DD34F5999562DB4190433C71
:10438000AB6351FE61C5BBDE3A6E24B7E0D24D424D
:10439000EA2E49061C92D1091CEB1DFE3EA729B14D
:1043A000F53582E88444BB2E26709CE9417E5FB4DB
:1043B00039D69139F43953838B5F849C3B28F9BDFE
:1043C000FF97F81F0F9805DE8B112FEF1F6D0A5A0C
:1043D000CF7E366DB709CB27663F464F2DEA5F9EED
:1043E000C7BA27757BF1E5EBF739073DEA92528AA8
:1043F000B15FFB6B085D8D1FA6F810111111813F95
:10440000D561C119A0012ABF7DFEB157E31DC73E8A
:10441000EB9C2B8AE6E55ABE7CD5CF5A3AD9E53DCE
:10442000404400080000002034000000E42500089B
:10443000744400083400002034040000F42500080F
:1044400000000000000000006400000064000000A4
:10445000000000000000000000000000000000005C
:104460000000FFFF000000002C31000810001800C1
:044470000000000048
:04000005080001519D
:00000001FF
